{
  "contractName": "RandomGenerator",
  "abi": [
    {
      "inputs": [
        {
          "internalType": "uint256",
          "name": "_seed",
          "type": "uint256"
        },
        {
          "internalType": "address",
          "name": "_owner",
          "type": "address"
        }
      ],
      "stateMutability": "nonpayable",
      "type": "constructor"
    },
    {
      "anonymous": false,
      "inputs": [
        {
          "indexed": false,
          "internalType": "uint256",
          "name": "randomNumber",
          "type": "uint256"
        }
      ],
      "name": "ChainlinkNumGenerated",
      "type": "event"
    },
    {
      "anonymous": false,
      "inputs": [
        {
          "indexed": false,
          "internalType": "uint256",
          "name": "randomNum",
          "type": "uint256"
        },
        {
          "indexed": false,
          "internalType": "uint256",
          "name": "timestamp",
          "type": "uint256"
        }
      ],
      "name": "RandomNumGenerated",
      "type": "event"
    },
    {
      "anonymous": false,
      "inputs": [
        {
          "indexed": true,
          "internalType": "bytes32",
          "name": "role",
          "type": "bytes32"
        },
        {
          "indexed": true,
          "internalType": "bytes32",
          "name": "previousAdminRole",
          "type": "bytes32"
        },
        {
          "indexed": true,
          "internalType": "bytes32",
          "name": "newAdminRole",
          "type": "bytes32"
        }
      ],
      "name": "RoleAdminChanged",
      "type": "event"
    },
    {
      "anonymous": false,
      "inputs": [
        {
          "indexed": true,
          "internalType": "bytes32",
          "name": "role",
          "type": "bytes32"
        },
        {
          "indexed": true,
          "internalType": "address",
          "name": "account",
          "type": "address"
        },
        {
          "indexed": true,
          "internalType": "address",
          "name": "sender",
          "type": "address"
        }
      ],
      "name": "RoleGranted",
      "type": "event"
    },
    {
      "anonymous": false,
      "inputs": [
        {
          "indexed": true,
          "internalType": "bytes32",
          "name": "role",
          "type": "bytes32"
        },
        {
          "indexed": true,
          "internalType": "address",
          "name": "account",
          "type": "address"
        },
        {
          "indexed": true,
          "internalType": "address",
          "name": "sender",
          "type": "address"
        }
      ],
      "name": "RoleRevoked",
      "type": "event"
    },
    {
      "anonymous": false,
      "inputs": [
        {
          "indexed": false,
          "internalType": "address",
          "name": "viewer",
          "type": "address"
        }
      ],
      "name": "ViewerAdded",
      "type": "event"
    },
    {
      "anonymous": false,
      "inputs": [
        {
          "indexed": false,
          "internalType": "address",
          "name": "viewer",
          "type": "address"
        }
      ],
      "name": "ViewerRemoved",
      "type": "event"
    },
    {
      "inputs": [],
      "name": "DEFAULT_ADMIN_ROLE",
      "outputs": [
        {
          "internalType": "bytes32",
          "name": "",
          "type": "bytes32"
        }
      ],
      "stateMutability": "view",
      "type": "function",
      "constant": true
    },
    {
      "inputs": [
        {
          "internalType": "bytes32",
          "name": "role",
          "type": "bytes32"
        }
      ],
      "name": "getRoleAdmin",
      "outputs": [
        {
          "internalType": "bytes32",
          "name": "",
          "type": "bytes32"
        }
      ],
      "stateMutability": "view",
      "type": "function",
      "constant": true
    },
    {
      "inputs": [
        {
          "internalType": "bytes32",
          "name": "role",
          "type": "bytes32"
        },
        {
          "internalType": "address",
          "name": "account",
          "type": "address"
        }
      ],
      "name": "grantRole",
      "outputs": [],
      "stateMutability": "nonpayable",
      "type": "function"
    },
    {
      "inputs": [
        {
          "internalType": "bytes32",
          "name": "role",
          "type": "bytes32"
        },
        {
          "internalType": "address",
          "name": "account",
          "type": "address"
        }
      ],
      "name": "hasRole",
      "outputs": [
        {
          "internalType": "bool",
          "name": "",
          "type": "bool"
        }
      ],
      "stateMutability": "view",
      "type": "function",
      "constant": true
    },
    {
      "inputs": [
        {
          "internalType": "bytes32",
          "name": "requestId",
          "type": "bytes32"
        },
        {
          "internalType": "uint256",
          "name": "randomness",
          "type": "uint256"
        }
      ],
      "name": "rawFulfillRandomness",
      "outputs": [],
      "stateMutability": "nonpayable",
      "type": "function"
    },
    {
      "inputs": [
        {
          "internalType": "bytes32",
          "name": "role",
          "type": "bytes32"
        },
        {
          "internalType": "address",
          "name": "account",
          "type": "address"
        }
      ],
      "name": "renounceRole",
      "outputs": [],
      "stateMutability": "nonpayable",
      "type": "function"
    },
    {
      "inputs": [
        {
          "internalType": "bytes32",
          "name": "role",
          "type": "bytes32"
        },
        {
          "internalType": "address",
          "name": "account",
          "type": "address"
        }
      ],
      "name": "revokeRole",
      "outputs": [],
      "stateMutability": "nonpayable",
      "type": "function"
    },
    {
      "inputs": [
        {
          "internalType": "bytes4",
          "name": "interfaceId",
          "type": "bytes4"
        }
      ],
      "name": "supportsInterface",
      "outputs": [
        {
          "internalType": "bool",
          "name": "",
          "type": "bool"
        }
      ],
      "stateMutability": "view",
      "type": "function",
      "constant": true
    },
    {
      "inputs": [],
      "name": "getRandomNumber",
      "outputs": [
        {
          "internalType": "bytes32",
          "name": "requestId",
          "type": "bytes32"
        }
      ],
      "stateMutability": "nonpayable",
      "type": "function"
    },
    {
      "inputs": [],
      "name": "getSeed",
      "outputs": [
        {
          "internalType": "uint256",
          "name": "",
          "type": "uint256"
        }
      ],
      "stateMutability": "view",
      "type": "function",
      "constant": true
    },
    {
      "inputs": [],
      "name": "getCounter",
      "outputs": [
        {
          "internalType": "uint256",
          "name": "",
          "type": "uint256"
        }
      ],
      "stateMutability": "view",
      "type": "function",
      "constant": true
    },
    {
      "inputs": [
        {
          "internalType": "uint256",
          "name": "_seed",
          "type": "uint256"
        }
      ],
      "name": "setSeed",
      "outputs": [],
      "stateMutability": "nonpayable",
      "type": "function"
    },
    {
      "inputs": [
        {
          "internalType": "uint256",
          "name": "modulus",
          "type": "uint256"
        }
      ],
      "name": "latestRoundData",
      "outputs": [
        {
          "internalType": "uint256",
          "name": "",
          "type": "uint256"
        },
        {
          "internalType": "uint256",
          "name": "",
          "type": "uint256"
        },
        {
          "internalType": "uint256",
          "name": "",
          "type": "uint256"
        }
      ],
      "stateMutability": "nonpayable",
      "type": "function"
    },
    {
      "inputs": [
        {
          "internalType": "address",
          "name": "account",
          "type": "address"
        }
      ],
      "name": "addViewRole",
      "outputs": [],
      "stateMutability": "nonpayable",
      "type": "function"
    },
    {
      "inputs": [
        {
          "internalType": "address",
          "name": "account",
          "type": "address"
        }
      ],
      "name": "removeFromViewRole",
      "outputs": [],
      "stateMutability": "nonpayable",
      "type": "function"
    }
  ],
  "bytecode": "0x60c06040523480156200001157600080fd5b506040516200255b3803806200255b8339818101604052810190620000379190620003bf565b738c7382f9d8f56b33781fe506e897a4f1e2d1725573326c977e6efc84e512bb9c30f76e30c160ed06fb8173ffffffffffffffffffffffffffffffffffffffff1660a08173ffffffffffffffffffffffffffffffffffffffff1660601b815250508073ffffffffffffffffffffffffffffffffffffffff1660808173ffffffffffffffffffffffffffffffffffffffff1660601b8152505050507f6e75b569a01ef56d18cab6a8e71e6600d6ce853834d4a5748b720d06f878b3a460001b600281905550655af3107a400060038190555081600581905550620001246000801b826200019360201b60201c565b620001567f89ccc616a9559cceb5a18d1e25f56d9e6b4dc112f401768331b5deb2edc18178826200019360201b60201c565b6200018b7f89ccc616a9559cceb5a18d1e25f56d9e6b4dc112f401768331b5deb2edc181786000801b620001a960201b60201c565b505062000472565b620001a582826200020d60201b60201c565b5050565b6000620001bc83620002fe60201b60201c565b90508160016000858152602001908152602001600020600101819055508181847fbd79b86ffe0ab8e8776151514217cd7cacd52c909f66475c3af44e129f0b00ff60405160405180910390a4505050565b6200021f82826200031e60201b60201c565b620002fa57600180600084815260200190815260200160002060000160008373ffffffffffffffffffffffffffffffffffffffff1673ffffffffffffffffffffffffffffffffffffffff16815260200190815260200160002060006101000a81548160ff0219169083151502179055506200029f6200038960201b60201c565b73ffffffffffffffffffffffffffffffffffffffff168173ffffffffffffffffffffffffffffffffffffffff16837f2f8788117e7eff1d82e926ec794901d17c78024a50270940304540a733656f0d60405160405180910390a45b5050565b600060016000838152602001908152602001600020600101549050919050565b60006001600084815260200190815260200160002060000160008373ffffffffffffffffffffffffffffffffffffffff1673ffffffffffffffffffffffffffffffffffffffff16815260200190815260200160002060009054906101000a900460ff16905092915050565b600033905090565b600081519050620003a2816200043e565b92915050565b600081519050620003b98162000458565b92915050565b60008060408385031215620003d357600080fd5b6000620003e385828601620003a8565b9250506020620003f68582860162000391565b9150509250929050565b60006200040d8262000414565b9050919050565b600073ffffffffffffffffffffffffffffffffffffffff82169050919050565b6000819050919050565b620004498162000400565b81146200045557600080fd5b50565b620004638162000434565b81146200046f57600080fd5b50565b60805160601c60a05160601c6120af620004ac600039600081816106410152610dd30152600081816108010152610d9701526120af6000f3fe608060405234801561001057600080fd5b50600436106100f55760003560e01c806391d1485411610097578063c32a50f911610066578063c32a50f914610286578063d547741f146102a2578063dbdff2c1146102be578063df411518146102dc576100f5565b806391d14854146101ea57806394985ddd1461021a5780639bbf750114610236578063a217fddf14610268576100f5565b806336568abe116100d357806336568abe1461017657806339e7357c146101925780635eae1afb146101b05780638ada066e146101cc576100f5565b806301ffc9a7146100fa578063248a9ca31461012a5780632f2ff15d1461015a575b600080fd5b610114600480360381019061010f91906113da565b6102f8565b604051610121919061179e565b60405180910390f35b610144600480360381019061013f9190611339565b610372565b60405161015191906117b9565b60405180910390f35b610174600480360381019061016f9190611362565b610392565b005b610190600480360381019061018b9190611362565b6103bb565b005b61019a61043e565b6040516101a79190611924565b60405180910390f35b6101ca60048036038101906101c591906112e7565b6104b1565b005b6101d4610561565b6040516101e19190611924565b60405180910390f35b61020460048036038101906101ff9190611362565b6105d4565b604051610211919061179e565b60405180910390f35b610234600480360381019061022f919061139e565b61063f565b005b610250600480360381019061024b9190611403565b6106db565b60405161025f93929190611968565b60405180910390f35b610270610774565b60405161027d91906117b9565b60405180910390f35b6102a0600480360381019061029b9190611403565b61077b565b005b6102bc60048036038101906102b79190611362565b6107d1565b005b6102c66107fa565b6040516102d391906117b9565b60405180910390f35b6102f660048036038101906102f191906112e7565b6108fc565b005b60007f7965db0b000000000000000000000000000000000000000000000000000000007bffffffffffffffffffffffffffffffffffffffffffffffffffffffff1916827bffffffffffffffffffffffffffffffffffffffffffffffffffffffff1916148061036b575061036a826109ac565b5b9050919050565b600060016000838152602001908152602001600020600101549050919050565b61039b82610372565b6103ac816103a7610a16565b610a1e565b6103b68383610abb565b505050565b6103c3610a16565b73ffffffffffffffffffffffffffffffffffffffff168173ffffffffffffffffffffffffffffffffffffffff1614610430576040517f08c379a000000000000000000000000000000000000000000000000000000000815260040161042790611904565b60405180910390fd5b61043a8282610b9b565b5050565b600061046a7f89ccc616a9559cceb5a18d1e25f56d9e6b4dc112f401768331b5deb2edc18178336105d4565b6104a9576040517f08c379a00000000000000000000000000000000000000000000000000000000081526004016104a0906118e4565b60405180910390fd5b600554905090565b6104be6000801b336105d4565b6104fd576040517f08c379a00000000000000000000000000000000000000000000000000000000081526004016104f4906118a4565b60405180910390fd5b6105277f89ccc616a9559cceb5a18d1e25f56d9e6b4dc112f401768331b5deb2edc1817882610b9b565b7f9bef54c131a7d1db8da8d80942585e9ac4b3e3901d5fdf297a72d316d83fa62a816040516105569190611745565b60405180910390a150565b600061058d7f89ccc616a9559cceb5a18d1e25f56d9e6b4dc112f401768331b5deb2edc18178336105d4565b6105cc576040517f08c379a00000000000000000000000000000000000000000000000000000000081526004016105c3906118e4565b60405180910390fd5b600654905090565b60006001600084815260200190815260200160002060000160008373ffffffffffffffffffffffffffffffffffffffff1673ffffffffffffffffffffffffffffffffffffffff16815260200190815260200160002060009054906101000a900460ff16905092915050565b7f000000000000000000000000000000000000000000000000000000000000000073ffffffffffffffffffffffffffffffffffffffff163373ffffffffffffffffffffffffffffffffffffffff16146106cd576040517f08c379a00000000000000000000000000000000000000000000000000000000081526004016106c4906118c4565b60405180910390fd5b6106d78282610c7d565b5050565b600080600061070a7f89ccc616a9559cceb5a18d1e25f56d9e6b4dc112f401768331b5deb2edc18178336105d4565b610749576040517f08c379a0000000000000000000000000000000000000000000000000000000008152600401610740906118e4565b60405180910390fd5b60008061075586610cc1565b9150915081600781905550600654828294509450945050509193909250565b6000801b81565b6107886000801b336105d4565b6107c7576040517f08c379a00000000000000000000000000000000000000000000000000000000081526004016107be906118a4565b60405180910390fd5b8060058190555050565b6107da82610372565b6107eb816107e6610a16565b610a1e565b6107f58383610b9b565b505050565b60006003547f000000000000000000000000000000000000000000000000000000000000000073ffffffffffffffffffffffffffffffffffffffff166370a08231306040518263ffffffff1660e01b81526004016108589190611745565b60206040518083038186803b15801561087057600080fd5b505afa158015610884573d6000803e3d6000fd5b505050506040513d601f19601f820116820180604052508101906108a8919061142c565b10156108e9576040517f08c379a00000000000000000000000000000000000000000000000000000000081526004016108e090611884565b60405180910390fd5b6108f7600254600354610d93565b905090565b6109096000801b336105d4565b610948576040517f08c379a000000000000000000000000000000000000000000000000000000000815260040161093f906118a4565b60405180910390fd5b6109727f89ccc616a9559cceb5a18d1e25f56d9e6b4dc112f401768331b5deb2edc1817882610ef2565b7f8f3cdfcd0f6c43806bbb60258ecb84e7687ad429438a38d75a1dbee3c9e31f50816040516109a19190611745565b60405180910390a150565b60007f01ffc9a7000000000000000000000000000000000000000000000000000000007bffffffffffffffffffffffffffffffffffffffffffffffffffffffff1916827bffffffffffffffffffffffffffffffffffffffffffffffffffffffff1916149050919050565b600033905090565b610a2882826105d4565b610ab757610a4d8173ffffffffffffffffffffffffffffffffffffffff166014610f00565b610a5b8360001c6020610f00565b604051602001610a6c92919061170b565b6040516020818303038152906040526040517f08c379a0000000000000000000000000000000000000000000000000000000008152600401610aae9190611842565b60405180910390fd5b5050565b610ac582826105d4565b610b9757600180600084815260200190815260200160002060000160008373ffffffffffffffffffffffffffffffffffffffff1673ffffffffffffffffffffffffffffffffffffffff16815260200190815260200160002060006101000a81548160ff021916908315150217905550610b3c610a16565b73ffffffffffffffffffffffffffffffffffffffff168173ffffffffffffffffffffffffffffffffffffffff16837f2f8788117e7eff1d82e926ec794901d17c78024a50270940304540a733656f0d60405160405180910390a45b5050565b610ba582826105d4565b15610c795760006001600084815260200190815260200160002060000160008373ffffffffffffffffffffffffffffffffffffffff1673ffffffffffffffffffffffffffffffffffffffff16815260200190815260200160002060006101000a81548160ff021916908315150217905550610c1e610a16565b73ffffffffffffffffffffffffffffffffffffffff168173ffffffffffffffffffffffffffffffffffffffff16837ff6391f5c32d9c69d2a47ea670b442974b53935d1edc7fd64eb21e047a839171b60405160405180910390a45b5050565b806004819055507f8210ff37f9d8d3fcd18e7d9ad6675e5e4566983b7d5a44a76e4a39d8eba938b5600454604051610cb59190611924565b60405180910390a15050565b600080600060045460001b6002600654610cdb9190611a8b565b60001b60055460001b18189050600081424433604051602001610d0194939291906116bd565b60405160208183030381529060405280519060200120905060066000815480929190610d2c90611ceb565b91905055507f68486fa133960c4a1987eb118b0eec332525f57e492d37923eaebc6fdba5171f858260001c610d619190611d6c565b42604051610d7092919061193f565b60405180910390a1848160001c610d879190611d6c565b42935093505050915091565b60007f000000000000000000000000000000000000000000000000000000000000000073ffffffffffffffffffffffffffffffffffffffff16634000aea07f000000000000000000000000000000000000000000000000000000000000000084866000604051602001610e079291906117d4565b6040516020818303038152906040526040518463ffffffff1660e01b8152600401610e3493929190611760565b602060405180830381600087803b158015610e4e57600080fd5b505af1158015610e62573d6000803e3d6000fd5b505050506040513d601f19601f82011682018060405250810190610e869190611310565b506000610ea884600030600080898152602001908152602001600020546111fa565b9050600160008086815260200190815260200160002054610ec991906119e2565b60008086815260200190815260200160002081905550610ee98482611236565b91505092915050565b610efc8282610abb565b5050565b606060006002836002610f139190611ba9565b610f1d91906119e2565b67ffffffffffffffff811115610f5c577f4e487b7100000000000000000000000000000000000000000000000000000000600052604160045260246000fd5b6040519080825280601f01601f191660200182016040528015610f8e5781602001600182028036833780820191505090505b5090507f300000000000000000000000000000000000000000000000000000000000000081600081518110610fec577f4e487b7100000000000000000000000000000000000000000000000000000000600052603260045260246000fd5b60200101907effffffffffffffffffffffffffffffffffffffffffffffffffffffffffffff1916908160001a9053507f780000000000000000000000000000000000000000000000000000000000000081600181518110611076577f4e487b7100000000000000000000000000000000000000000000000000000000600052603260045260246000fd5b60200101907effffffffffffffffffffffffffffffffffffffffffffffffffffffffffffff1916908160001a905350600060018460026110b69190611ba9565b6110c091906119e2565b90505b60018111156111ac577f3031323334353637383961626364656600000000000000000000000000000000600f861660108110611128577f4e487b7100000000000000000000000000000000000000000000000000000000600052603260045260246000fd5b1a60f81b828281518110611165577f4e487b7100000000000000000000000000000000000000000000000000000000600052603260045260246000fd5b60200101907effffffffffffffffffffffffffffffffffffffffffffffffffffffffffffff1916908160001a905350600485901c9450806111a590611cc1565b90506110c3565b50600084146111f0576040517f08c379a00000000000000000000000000000000000000000000000000000000081526004016111e790611864565b60405180910390fd5b8091505092915050565b60008484848460405160200161121394939291906117fd565b6040516020818303038152906040528051906020012060001c9050949350505050565b6000828260405160200161124b929190611691565b60405160208183030381529060405280519060200120905092915050565b60008135905061127881612006565b92915050565b60008151905061128d8161201d565b92915050565b6000813590506112a281612034565b92915050565b6000813590506112b78161204b565b92915050565b6000813590506112cc81612062565b92915050565b6000815190506112e181612062565b92915050565b6000602082840312156112f957600080fd5b600061130784828501611269565b91505092915050565b60006020828403121561132257600080fd5b60006113308482850161127e565b91505092915050565b60006020828403121561134b57600080fd5b600061135984828501611293565b91505092915050565b6000806040838503121561137557600080fd5b600061138385828601611293565b925050602061139485828601611269565b9150509250929050565b600080604083850312156113b157600080fd5b60006113bf85828601611293565b92505060206113d0858286016112bd565b9150509250929050565b6000602082840312156113ec57600080fd5b60006113fa848285016112a8565b91505092915050565b60006020828403121561141557600080fd5b6000611423848285016112bd565b91505092915050565b60006020828403121561143e57600080fd5b600061144c848285016112d2565b91505092915050565b61145e81611c03565b82525050565b61147561147082611c03565b611d34565b82525050565b61148481611c15565b82525050565b61149381611c21565b82525050565b6114aa6114a582611c21565b611d46565b82525050565b60006114bb8261199f565b6114c581856119b5565b93506114d5818560208601611c8e565b6114de81611dfb565b840191505092915050565b60006114f4826119aa565b6114fe81856119c6565b935061150e818560208601611c8e565b61151781611dfb565b840191505092915050565b600061152d826119aa565b61153781856119d7565b9350611547818560208601611c8e565b80840191505092915050565b60006115606020836119c6565b915061156b82611e26565b602082019050919050565b6000611583602b836119c6565b915061158e82611e4f565b604082019050919050565b60006115a66037836119c6565b91506115b182611e9e565b604082019050919050565b60006115c9601f836119c6565b91506115d482611eed565b602082019050919050565b60006115ec6034836119c6565b91506115f782611f16565b604082019050919050565b600061160f6017836119d7565b915061161a82611f65565b601782019050919050565b60006116326011836119d7565b915061163d82611f8e565b601182019050919050565b6000611655602f836119c6565b915061166082611fb7565b604082019050919050565b61167481611c77565b82525050565b61168b61168682611c77565b611d62565b82525050565b600061169d8285611499565b6020820191506116ad828461167a565b6020820191508190509392505050565b60006116c98287611499565b6020820191506116d9828661167a565b6020820191506116e9828561167a565b6020820191506116f98284611464565b60148201915081905095945050505050565b600061171682611602565b91506117228285611522565b915061172d82611625565b91506117398284611522565b91508190509392505050565b600060208201905061175a6000830184611455565b92915050565b60006060820190506117756000830186611455565b611782602083018561166b565b818103604083015261179481846114b0565b9050949350505050565b60006020820190506117b3600083018461147b565b92915050565b60006020820190506117ce600083018461148a565b92915050565b60006040820190506117e9600083018561148a565b6117f6602083018461166b565b9392505050565b6000608082019050611812600083018761148a565b61181f602083018661166b565b61182c6040830185611455565b611839606083018461166b565b95945050505050565b6000602082019050818103600083015261185c81846114e9565b905092915050565b6000602082019050818103600083015261187d81611553565b9050919050565b6000602082019050818103600083015261189d81611576565b9050919050565b600060208201905081810360008301526118bd81611599565b9050919050565b600060208201905081810360008301526118dd816115bc565b9050919050565b600060208201905081810360008301526118fd816115df565b9050919050565b6000602082019050818103600083015261191d81611648565b9050919050565b6000602082019050611939600083018461166b565b92915050565b6000604082019050611954600083018561166b565b611961602083018461166b565b9392505050565b600060608201905061197d600083018661166b565b61198a602083018561166b565b611997604083018461166b565b949350505050565b600081519050919050565b600081519050919050565b600082825260208201905092915050565b600082825260208201905092915050565b600081905092915050565b60006119ed82611c77565b91506119f883611c77565b9250827fffffffffffffffffffffffffffffffffffffffffffffffffffffffffffffffff03821115611a2d57611a2c611d9d565b5b828201905092915050565b6000808291508390505b6001851115611a8257808604811115611a5e57611a5d611d9d565b5b6001851615611a6d5780820291505b8081029050611a7b85611e19565b9450611a42565b94509492505050565b6000611a9682611c77565b9150611aa183611c81565b9250611ace7fffffffffffffffffffffffffffffffffffffffffffffffffffffffffffffffff8484611ad6565b905092915050565b600082611ae65760019050611ba2565b81611af45760009050611ba2565b8160018114611b0a5760028114611b1457611b43565b6001915050611ba2565b60ff841115611b2657611b25611d9d565b5b8360020a915084821115611b3d57611b3c611d9d565b5b50611ba2565b5060208310610133831016604e8410600b8410161715611b785782820a905083811115611b7357611b72611d9d565b5b611ba2565b611b858484846001611a38565b92509050818404811115611b9c57611b9b611d9d565b5b81810290505b9392505050565b6000611bb482611c77565b9150611bbf83611c77565b9250817fffffffffffffffffffffffffffffffffffffffffffffffffffffffffffffffff0483118215151615611bf857611bf7611d9d565b5b828202905092915050565b6000611c0e82611c57565b9050919050565b60008115159050919050565b6000819050919050565b60007fffffffff0000000000000000000000000000000000000000000000000000000082169050919050565b600073ffffffffffffffffffffffffffffffffffffffff82169050919050565b6000819050919050565b600060ff82169050919050565b60005b83811015611cac578082015181840152602081019050611c91565b83811115611cbb576000848401525b50505050565b6000611ccc82611c77565b91506000821415611ce057611cdf611d9d565b5b600182039050919050565b6000611cf682611c77565b91507fffffffffffffffffffffffffffffffffffffffffffffffffffffffffffffffff821415611d2957611d28611d9d565b5b600182019050919050565b6000611d3f82611d50565b9050919050565b6000819050919050565b6000611d5b82611e0c565b9050919050565b6000819050919050565b6000611d7782611c77565b9150611d8283611c77565b925082611d9257611d91611dcc565b5b828206905092915050565b7f4e487b7100000000000000000000000000000000000000000000000000000000600052601160045260246000fd5b7f4e487b7100000000000000000000000000000000000000000000000000000000600052601260045260246000fd5b6000601f19601f8301169050919050565b60008160601b9050919050565b60008160011c9050919050565b7f537472696e67733a20686578206c656e67746820696e73756666696369656e74600082015250565b7f4e6f7420656e6f756768204c494e4b202d2066696c6c20636f6e74726163742060008201527f7769746820666175636574000000000000000000000000000000000000000000602082015250565b7f556e617574686f72697a65643a204f6e6c792064656661756c742061646d696e60008201527f2063616e2063616c6c20746869732066756e6374696f6e000000000000000000602082015250565b7f4f6e6c7920565246436f6f7264696e61746f722063616e2066756c66696c6c00600082015250565b7f556e617574686f72697a65643a204f6e6c79207669657720726f6c657320636160008201527f6e2063616c6c20746869732066756e6374696f6e000000000000000000000000602082015250565b7f416363657373436f6e74726f6c3a206163636f756e7420000000000000000000600082015250565b7f206973206d697373696e6720726f6c6520000000000000000000000000000000600082015250565b7f416363657373436f6e74726f6c3a2063616e206f6e6c792072656e6f756e636560008201527f20726f6c657320666f722073656c660000000000000000000000000000000000602082015250565b61200f81611c03565b811461201a57600080fd5b50565b61202681611c15565b811461203157600080fd5b50565b61203d81611c21565b811461204857600080fd5b50565b61205481611c2b565b811461205f57600080fd5b50565b61206b81611c77565b811461207657600080fd5b5056fea2646970667358221220d43fefd081936694b5b95dee24c3293e61a37daee429584fe182e9b3c21cbfe864736f6c63430008040033",
  "immutableReferences": {
    "73": [
      {
        "length": 32,
        "start": 2049
      },
      {
        "length": 32,
        "start": 3479
      }
    ],
    "75": [
      {
        "length": 32,
        "start": 1601
      },
      {
        "length": 32,
        "start": 3539
      }
    ]
  },
  "source": "//SPDX-License-Identifier: MIT\r\n\r\npragma solidity ^0.8.4;\r\n\r\nimport '@chainlink/contracts/src/v0.8/VRFConsumerBase.sol';\r\nimport '@openzeppelin/contracts/access/AccessControl.sol';\r\nimport '@openzeppelin/contracts/utils/math/SafeMath.sol';\r\nimport '@openzeppelin/contracts/utils/Context.sol';\r\nimport './IRandomGenerator.sol';\r\n\r\ncontract RandomGenerator is IRandomGenerator, VRFConsumerBase, AccessControl{\r\n    using SafeMath for uint256;\r\n    bytes32 private constant VIEW_ROLE = keccak256(\"VIEW_ROLE\");\r\n\r\n    bytes32 internal keyHash;\r\n    uint256 internal fee;\r\n    \r\n    uint256 private chainlinkRandomResult;\r\n    uint256 private seed;\r\n    uint256 private counter;\r\n    uint256 private lastRandomNum;\r\n\r\n    event RandomNumGenerated(uint256 randomNum, uint256 timestamp);\r\n    event ChainlinkNumGenerated(uint256 randomNumber);\r\n    event ViewerAdded(address viewer);\r\n    event ViewerRemoved(address viewer);\r\n\r\n    /* For polygon:\r\n        LINK Token\t0xb0897686c545045aFc77CF20eC7A532E3120E0F1\r\n        VRF Coordinator\t0x3d2341ADb2D31f1c5530cDC622016af293177AE0\r\n        Key Hash\t0xf86195cf7690c55907b2b611ebb7343a6f649bff128701cc542f0569e2c549da\r\n        Fee\t0.0001 LINK  \r\n\r\n       For Mumbai:\r\n        LINK Token\t0x326C977E6efc84E512bB9C30f76E30c160eD06FB\r\n        VRF Coordinator\t0x8C7382F9D8f56b33781fE506E897a4F1e2d17255\r\n        Key Hash\t0x6e75b569a01ef56d18cab6a8e71e6600d6ce853834d4a5748b720d06f878b3a4\r\n        Fee\t0.0001 LINK\r\n    **/\r\n    constructor(uint256 _seed, address _owner) \r\n        VRFConsumerBase(\r\n            0x8C7382F9D8f56b33781fE506E897a4F1e2d17255, // VRF Coordinator\r\n            0x326C977E6efc84E512bB9C30f76E30c160eD06FB  // LINK Token\r\n        )\r\n    {\r\n        keyHash = 0x6e75b569a01ef56d18cab6a8e71e6600d6ce853834d4a5748b720d06f878b3a4;\r\n        fee = 10 ** 14; // 0.1 LINK (For Polygon)\r\n        seed = _seed;\r\n        _setupRole(DEFAULT_ADMIN_ROLE, _owner);\r\n        _setupRole(VIEW_ROLE, _owner);\r\n        _setRoleAdmin(VIEW_ROLE, DEFAULT_ADMIN_ROLE);\r\n    }\r\n\r\n    /** \r\n     * Requests randomness \r\n     */\r\n    function getRandomNumber() external returns (bytes32 requestId) {\r\n        require(LINK.balanceOf(address(this)) >= fee, \"Not enough LINK - fill contract with faucet\");\r\n        return requestRandomness(keyHash, fee);\r\n    }\r\n\r\n    /**\r\n     * Callback function used by VRF Coordinator\r\n     */\r\n    function fulfillRandomness(bytes32 requestId, uint256 randomness) internal override {\r\n        chainlinkRandomResult = randomness;\r\n        emit ChainlinkNumGenerated(chainlinkRandomResult);\r\n    }\r\n\r\n    function getSeed() external view override onlyViewRole() returns(uint256){\r\n        return seed;\r\n    }\r\n\r\n    function getCounter() external view override onlyViewRole() returns(uint256){\r\n        return counter;\r\n    }\r\n\r\n    function setSeed(uint256 _seed) external override onlyDefaultAdminRole() {\r\n        seed = _seed;\r\n    } \r\n\r\n\r\n    function _generateRandomNumber(uint256 modulus) private returns (uint256, uint256){\r\n    \r\n        bytes32 xorred = (bytes32(seed) ^ bytes32(counter ** 2)) ^ bytes32(chainlinkRandomResult);\r\n        bytes32 random = keccak256(abi.encodePacked(\r\n            xorred,\r\n            block.timestamp,\r\n            block.difficulty,\r\n            msg.sender\r\n        ));\r\n        counter++;\r\n        emit RandomNumGenerated((uint256(random) % modulus), block.timestamp);\r\n        return ((uint256(random) % modulus), block.timestamp);\r\n    }\r\n\r\n    function latestRoundData(uint256 modulus)\r\n        external  \r\n        override \r\n        onlyViewRole()\r\n        returns (uint256, uint256, uint256)\r\n    {\r\n        (uint256 randomNumber, uint256 timestamp) = _generateRandomNumber(modulus);\r\n        lastRandomNum = randomNumber;\r\n        return (counter, randomNumber, timestamp);\r\n    }\r\n\r\n    function addViewRole(address account) external override onlyDefaultAdminRole(){\r\n        _setupRole(VIEW_ROLE, account);\r\n        emit ViewerAdded(account);\r\n    }\r\n\r\n    function removeFromViewRole(address account) external override onlyDefaultAdminRole(){\r\n        _revokeRole(VIEW_ROLE, account);\r\n        emit ViewerRemoved(account);\r\n    }\r\n\r\n    modifier onlyViewRole() {\r\n        require(\r\n            hasRole(VIEW_ROLE, msg.sender),\r\n            \"Unauthorized: Only view roles can call this function\"\r\n            );\r\n        _;\r\n    }\r\n\r\n    modifier onlyDefaultAdminRole() {\r\n        require(\r\n            hasRole(DEFAULT_ADMIN_ROLE, msg.sender),\r\n            \"Unauthorized: Only default admin can call this function\"\r\n        );\r\n        _;\r\n    }\r\n\r\n}",
  "sourcePath": "C:\\Users\\shiva\\OneDrive\\Desktop\\RandomNumber\\contracts\\RandomGenerator.sol",
  "compiler": {
    "name": "solc",
    "version": "0.8.4+commit.c7e474f2.Emscripten.clang"
  },
  "schemaVersion": "3.4.4",
  "updatedAt": "2022-02-19T06:13:15.128Z",
  "networkType": "ethereum",
  "devdoc": {
    "kind": "dev",
    "methods": {
      "getRoleAdmin(bytes32)": {
        "details": "Returns the admin role that controls `role`. See {grantRole} and {revokeRole}. To change a role's admin, use {_setRoleAdmin}."
      },
      "grantRole(bytes32,address)": {
        "details": "Grants `role` to `account`. If `account` had not been already granted `role`, emits a {RoleGranted} event. Requirements: - the caller must have ``role``'s admin role."
      },
      "hasRole(bytes32,address)": {
        "details": "Returns `true` if `account` has been granted `role`."
      },
      "renounceRole(bytes32,address)": {
        "details": "Revokes `role` from the calling account. Roles are often managed via {grantRole} and {revokeRole}: this function's purpose is to provide a mechanism for accounts to lose their privileges if they are compromised (such as when a trusted device is misplaced). If the calling account had been revoked `role`, emits a {RoleRevoked} event. Requirements: - the caller must be `account`."
      },
      "revokeRole(bytes32,address)": {
        "details": "Revokes `role` from `account`. If `account` had been granted `role`, emits a {RoleRevoked} event. Requirements: - the caller must have ``role``'s admin role."
      },
      "supportsInterface(bytes4)": {
        "details": "See {IERC165-supportsInterface}."
      }
    },
    "version": 1
  },
  "userdoc": {
    "kind": "user",
    "methods": {
      "getRandomNumber()": {
        "notice": "Requests randomness "
      }
    },
    "version": 1
  }
}